{
  "contractName": "VoterContract",
  "abi": [
    {
      "inputs": [
        {
          "internalType": "uint256",
          "name": "openingTimeInSeconds",
          "type": "uint256"
        },
        {
          "internalType": "uint256",
          "name": "durationInSeconds",
          "type": "uint256"
        }
      ],
      "stateMutability": "nonpayable",
      "type": "constructor"
    },
    {
      "inputs": [],
      "name": "candidateCount",
      "outputs": [
        {
          "internalType": "uint8",
          "name": "",
          "type": "uint8"
        }
      ],
      "stateMutability": "view",
      "type": "function"
    },
    {
      "inputs": [
        {
          "internalType": "uint256",
          "name": "",
          "type": "uint256"
        }
      ],
      "name": "candidates",
      "outputs": [
        {
          "internalType": "string",
          "name": "_firstName",
          "type": "string"
        },
        {
          "internalType": "string",
          "name": "_lastName",
          "type": "string"
        },
        {
          "internalType": "uint8",
          "name": "_id",
          "type": "uint8"
        },
        {
          "internalType": "uint256",
          "name": "_votes",
          "type": "uint256"
        }
      ],
      "stateMutability": "view",
      "type": "function"
    },
    {
      "inputs": [],
      "name": "closingTime",
      "outputs": [
        {
          "internalType": "uint256",
          "name": "",
          "type": "uint256"
        }
      ],
      "stateMutability": "view",
      "type": "function"
    },
    {
      "inputs": [],
      "name": "openingTime",
      "outputs": [
        {
          "internalType": "uint256",
          "name": "",
          "type": "uint256"
        }
      ],
      "stateMutability": "view",
      "type": "function"
    },
    {
      "inputs": [
        {
          "internalType": "string",
          "name": "_firstName",
          "type": "string"
        },
        {
          "internalType": "string",
          "name": "_lastName",
          "type": "string"
        }
      ],
      "name": "addVoter",
      "outputs": [],
      "stateMutability": "nonpayable",
      "type": "function"
    },
    {
      "inputs": [
        {
          "internalType": "string",
          "name": "_firstName",
          "type": "string"
        },
        {
          "internalType": "string",
          "name": "_lastName",
          "type": "string"
        }
      ],
      "name": "addCandidates",
      "outputs": [],
      "stateMutability": "nonpayable",
      "type": "function"
    },
    {
      "inputs": [
        {
          "internalType": "address",
          "name": "voterAddress",
          "type": "address"
        }
      ],
      "name": "verifyVoter",
      "outputs": [],
      "stateMutability": "nonpayable",
      "type": "function"
    },
    {
      "inputs": [
        {
          "internalType": "uint8",
          "name": "candidateID",
          "type": "uint8"
        }
      ],
      "name": "vote",
      "outputs": [],
      "stateMutability": "nonpayable",
      "type": "function"
    },
    {
      "inputs": [],
      "name": "checkWinner",
      "outputs": [
        {
          "components": [
            {
              "internalType": "uint8",
              "name": "_winnerID",
              "type": "uint8"
            },
            {
              "internalType": "uint256",
              "name": "_winningPercentage",
              "type": "uint256"
            },
            {
              "internalType": "string",
              "name": "_status",
              "type": "string"
            }
          ],
          "internalType": "struct VoterContract.Winner",
          "name": "",
          "type": "tuple"
        }
      ],
      "stateMutability": "view",
      "type": "function"
    }
  ],
  "bytecode": "0x60806040526000600160006101000a81548160ff021916908360ff1602179055506000600355600060065560006008553480156200003c57600080fd5b5060405162001748380380620017488339818101604052810190620000629190620000df565b33600960006101000a81548173ffffffffffffffffffffffffffffffffffffffff021916908373ffffffffffffffffffffffffffffffffffffffff1602179055508160048190555080600454620000ba919062000120565b6005819055505050620001d0565b600081519050620000d981620001b6565b92915050565b60008060408385031215620000f357600080fd5b60006200010385828601620000c8565b92505060206200011685828601620000c8565b9150509250929050565b60006200012d826200017d565b91506200013a836200017d565b9250827fffffffffffffffffffffffffffffffffffffffffffffffffffffffffffffffff0382111562000172576200017162000187565b5b828201905092915050565b6000819050919050565b7f4e487b7100000000000000000000000000000000000000000000000000000000600052601160045260246000fd5b620001c1816200017d565b8114620001cd57600080fd5b50565b61156880620001e06000396000f3fe608060405234801561001057600080fd5b50600436106100935760003560e01c8063a9a981a311610066578063a9a981a314610121578063aa9225561461013f578063ad38867e1461015b578063b3f98adc14610179578063b7a8807c1461019557610093565b806309bd0950146100985780633477ee2e146100b45780634b6753bc146100e7578063853671b914610105575b600080fd5b6100b260048036038101906100ad9190610c02565b6101b3565b005b6100ce60048036038101906100c99190610c97565b610255565b6040516100de9493929190611047565b60405180910390f35b6100ef6103a2565b6040516100fc919061117c565b60405180910390f35b61011f600480360381019061011a9190610c2b565b6103a8565b005b6101296104f7565b6040516101369190611197565b60405180910390f35b61015960048036038101906101549190610c2b565b61050a565b005b6101636106d3565b604051610170919061115a565b60405180910390f35b610193600480360381019061018e9190610cc0565b61081d565b005b61019d610a1d565b6040516101aa919061117c565b60405180910390f35b42600454116101f7576040517f08c379a00000000000000000000000000000000000000000000000000000000081526004016101ee906110da565b60405180910390fd5b6001600260008373ffffffffffffffffffffffffffffffffffffffff1673ffffffffffffffffffffffffffffffffffffffff16815260200190815260200160002060030160006101000a81548160ff02191690831515021790555050565b6000602052806000526040600020600091509050806000018054610278906113ee565b80601f01602080910402602001604051908101604052809291908181526020018280546102a4906113ee565b80156102f15780601f106102c6576101008083540402835291602001916102f1565b820191906000526020600020905b8154815290600101906020018083116102d457829003601f168201915b505050505090806001018054610306906113ee565b80601f0160208091040260200160405190810160405280929190818152602001828054610332906113ee565b801561037f5780601f106103545761010080835404028352916020019161037f565b820191906000526020600020905b81548152906001019060200180831161036257829003601f168201915b5050505050908060020160009054906101000a900460ff16908060030154905084565b60055481565b42600454116103ec576040517f08c379a00000000000000000000000000000000000000000000000000000000081526004016103e3906110da565b60405180910390fd5b6103f582610a23565b6103fe81610a23565b600160036000828254610411919061124b565b9250508190555060646003541061042757600080fd5b6040518060800160405280838152602001828152602001600354815260200160001515815250600260003373ffffffffffffffffffffffffffffffffffffffff1673ffffffffffffffffffffffffffffffffffffffff16815260200190815260200160002060008201518160000190805190602001906104a8929190610a94565b5060208201518160010190805190602001906104c5929190610a94565b506040820151816002015560608201518160030160006101000a81548160ff0219169083151502179055509050505050565b600160009054906101000a900460ff1681565b3373ffffffffffffffffffffffffffffffffffffffff16600960009054906101000a900473ffffffffffffffffffffffffffffffffffffffff1673ffffffffffffffffffffffffffffffffffffffff161461056457600080fd5b42600454116105a8576040517f08c379a000000000000000000000000000000000000000000000000000000000815260040161059f906110da565b60405180910390fd5b6105b182610a23565b6105ba81610a23565b6004600160009054906101000a900460ff1660ff16106105d957600080fd5b6040518060800160405280838152602001828152602001600160009054906101000a900460ff1660ff1681526020016000815250600080600160009054906101000a900460ff1660ff168152602001908152602001600020600082015181600001908051906020019061064d929190610a94565b50602082015181600101908051906020019061066a929190610a94565b5060408201518160020160006101000a81548160ff021916908360ff1602179055506060820151816003015590505060018060008282829054906101000a900460ff166106b791906112a1565b92506101000a81548160ff021916908360ff1602179055505050565b6106db610b1a565b60035460065411610721576040517f08c379a00000000000000000000000000000000000000000000000000000000081526004016107189061109a565b60405180910390fd5b600060065460646008546107359190611309565b61073f91906112d8565b9050603c8111156107b4576040518060600160405280600760009054906101000a900460ff1660ff1681526020018281526020016040518060400160405280600781526020017f574f4e212121210000000000000000000000000000000000000000000000000081525081525091505061081a565b6040518060600160405280600760009054906101000a900460ff1660ff1681526020018281526020016040518060400160405280601c81526020017f50657263656e74616765206372697465726961206e6f74206d657421000000008152508152509150505b90565b4260045410610861576040517f08c379a00000000000000000000000000000000000000000000000000000000081526004016108589061113a565b60405180910390fd5b42600554116108a5576040517f08c379a000000000000000000000000000000000000000000000000000000000815260040161089c9061111a565b60405180910390fd5b6000600260003373ffffffffffffffffffffffffffffffffffffffff1673ffffffffffffffffffffffffffffffffffffffff16815260200190815260200160002060030160009054906101000a900460ff16905080610939576040517f08c379a0000000000000000000000000000000000000000000000000000000008152600401610930906110fa565b60405180910390fd5b60048260ff161061097f576040517f08c379a0000000000000000000000000000000000000000000000000000000008152600401610976906110ba565b60405180910390fd5b60008060008460ff1681526020019081526020016000206003015490506001816109a9919061124b565b6000808560ff168152602001908152602001600020600301819055506008548111156109fe576001816109dc919061124b565b60088190555082600760006101000a81548160ff021916908360ff1602179055505b600160066000828254610a11919061124b565b92505081905550505050565b60045481565b600060405180602001604052806000815250905080604051602001610a489190611030565b6040516020818303038152906040528051906020012082604051602001610a6f9190611030565b604051602081830303815290604052805190602001201415610a9057600080fd5b5050565b828054610aa0906113ee565b90600052602060002090601f016020900481019282610ac25760008555610b09565b82601f10610adb57805160ff1916838001178555610b09565b82800160010185558215610b09579182015b82811115610b08578251825591602001919060010190610aed565b5b509050610b169190610b3e565b5090565b6040518060600160405280600060ff16815260200160008152602001606081525090565b5b80821115610b57576000816000905550600101610b3f565b5090565b6000610b6e610b69846111e3565b6111b2565b905082815260208101848484011115610b8657600080fd5b610b918482856113ac565b509392505050565b600081359050610ba8816114ed565b92915050565b600082601f830112610bbf57600080fd5b8135610bcf848260208601610b5b565b91505092915050565b600081359050610be781611504565b92915050565b600081359050610bfc8161151b565b92915050565b600060208284031215610c1457600080fd5b6000610c2284828501610b99565b91505092915050565b60008060408385031215610c3e57600080fd5b600083013567ffffffffffffffff811115610c5857600080fd5b610c6485828601610bae565b925050602083013567ffffffffffffffff811115610c8157600080fd5b610c8d85828601610bae565b9150509250929050565b600060208284031215610ca957600080fd5b6000610cb784828501610bd8565b91505092915050565b600060208284031215610cd257600080fd5b6000610ce084828501610bed565b91505092915050565b6000610cf482611213565b610cfe818561121e565b9350610d0e8185602086016113bb565b610d17816114dc565b840191505092915050565b6000610d2d82611213565b610d37818561122f565b9350610d478185602086016113bb565b610d50816114dc565b840191505092915050565b6000610d6682611213565b610d708185611240565b9350610d808185602086016113bb565b80840191505092915050565b6000610d9960188361122f565b91507f4b75636820746f206761646261642068616920646179612100000000000000006000830152602082019050919050565b6000610dd960168361122f565b91507f496e76616c69642063616e6469646174652049442121000000000000000000006000830152602082019050919050565b6000610e19602c8361122f565b91507f5061727469636970616e747320617265206e6f7420616c6c6f776564206e6f7760008301527f212042686167206a616f2e2e00000000000000000000000000000000000000006020830152604082019050919050565b6000610e7f60258361122f565b91507f566f7465722068617320616c726561647920766f746564206f7220756e76657260008301527f69666965640000000000000000000000000000000000000000000000000000006020830152604082019050919050565b6000610ee560228361122f565b91507f566f74696e672069732066696e69736865642c20796f7520617265206c61746560008301527f21210000000000000000000000000000000000000000000000000000000000006020830152604082019050919050565b6000610f4b60298361122f565b91507f566f74696e67206973206e6f742073746172746564207965742c20776879207360008301527f6f206875727279212100000000000000000000000000000000000000000000006020830152604082019050919050565b6000606083016000830151610fbc6000860182611012565b506020830151610fcf6020860182610ff4565b5060408301518482036040860152610fe78282610ce9565b9150508091505092915050565b610ffd81611395565b82525050565b61100c81611395565b82525050565b61101b8161139f565b82525050565b61102a8161139f565b82525050565b600061103c8284610d5b565b915081905092915050565b600060808201905081810360008301526110618187610d22565b905081810360208301526110758186610d22565b90506110846040830185611021565b6110916060830184611003565b95945050505050565b600060208201905081810360008301526110b381610d8c565b9050919050565b600060208201905081810360008301526110d381610dcc565b9050919050565b600060208201905081810360008301526110f381610e0c565b9050919050565b6000602082019050818103600083015261111381610e72565b9050919050565b6000602082019050818103600083015261113381610ed8565b9050919050565b6000602082019050818103600083015261115381610f3e565b9050919050565b600060208201905081810360008301526111748184610fa4565b905092915050565b60006020820190506111916000830184611003565b92915050565b60006020820190506111ac6000830184611021565b92915050565b6000604051905081810181811067ffffffffffffffff821117156111d9576111d86114ad565b5b8060405250919050565b600067ffffffffffffffff8211156111fe576111fd6114ad565b5b601f19601f8301169050602081019050919050565b600081519050919050565b600082825260208201905092915050565b600082825260208201905092915050565b600081905092915050565b600061125682611395565b915061126183611395565b9250827fffffffffffffffffffffffffffffffffffffffffffffffffffffffffffffffff0382111561129657611295611420565b5b828201905092915050565b60006112ac8261139f565b91506112b78361139f565b92508260ff038211156112cd576112cc611420565b5b828201905092915050565b60006112e382611395565b91506112ee83611395565b9250826112fe576112fd61144f565b5b828204905092915050565b600061131482611395565b915061131f83611395565b9250817fffffffffffffffffffffffffffffffffffffffffffffffffffffffffffffffff048311821515161561135857611357611420565b5b828202905092915050565b600061136e82611375565b9050919050565b600073ffffffffffffffffffffffffffffffffffffffff82169050919050565b6000819050919050565b600060ff82169050919050565b82818337600083830152505050565b60005b838110156113d95780820151818401526020810190506113be565b838111156113e8576000848401525b50505050565b6000600282049050600182168061140657607f821691505b6020821081141561141a5761141961147e565b5b50919050565b7f4e487b7100000000000000000000000000000000000000000000000000000000600052601160045260246000fd5b7f4e487b7100000000000000000000000000000000000000000000000000000000600052601260045260246000fd5b7f4e487b7100000000000000000000000000000000000000000000000000000000600052602260045260246000fd5b7f4e487b7100000000000000000000000000000000000000000000000000000000600052604160045260246000fd5b6000601f19601f8301169050919050565b6114f681611363565b811461150157600080fd5b50565b61150d81611395565b811461151857600080fd5b50565b6115248161139f565b811461152f57600080fd5b5056fea2646970667358221220c8a8a98b9a65b3a0b1c931db667744801a1e7923530d63f3736e57cffb0c44c764736f6c63430008000033",
  "immutableReferences": {},
  "source": "// SPDX-License-Identifier: unlicense\npragma solidity 0.8.0;\n\ncontract VoterContract {\n    struct Candidate {\n        string _firstName;\n        string _lastName;\n        uint8 _id;\n        uint256 _votes;\n    }\n    mapping(uint => Candidate) public candidates;\n    uint8 public candidateCount = 0; // uint because we will only have 4 candidates as mentioned, we can also allow to set number of candidates from owner\n\n    struct Voter {\n        string _firstName;\n        string _lastName;\n        uint256 _id;\n        bool _isVerified;\n    }\n    mapping(address => Voter) voters;\n    uint256 voterCount = 0;\n\n    uint256 public openingTime;\n    uint256 public closingTime;\n    // uint256 public duration;\n\n    uint256 totalVotes = 0;\n    uint8 winningCandidateID; // assign this to default candidate numbers + 1\n    uint256 winningVoteCount = 0;\n\n    address ownerAddress;\n\n    struct Winner {\n        uint8 _winnerID;\n        uint256 _winningPercentage;\n        string _status;\n    }\n\n    constructor(uint openingTimeInSeconds, uint durationInSeconds) {\n        ownerAddress = msg.sender;   \n        openingTime = openingTimeInSeconds; // block.timestamp + 120;\n        // duration = 60; // 300 seconds\n        closingTime = openingTime + durationInSeconds;\n    }\n    \n    modifier isOwner {\n        require(ownerAddress == msg.sender);\n        _;\n    }\n\n    modifier isParticipantsAllowed {\n        require(openingTime > block.timestamp, \"Participants are not allowed now! Bhag jao..\");\n        _;\n    }\n\n    modifier isVotingAllowed {\n        require(openingTime < block.timestamp, \"Voting is not started yet, why so hurry!!\"); // give more appropriate response here\n        require(closingTime > block.timestamp, \"Voting is finished, you are late!!\"); // give more appropriate response here\n        _;\n    }\n\n    function checkForEmpty(string memory value) internal pure {\n        string memory empty = \"\";\n        require(keccak256(abi.encodePacked(value)) != keccak256(abi.encodePacked(empty)));\n    }\n\n    function addVoter(string memory _firstName, string memory _lastName) public isParticipantsAllowed { // add check to add an address only once\n        checkForEmpty(_firstName);\n        checkForEmpty(_lastName);\n\n        voterCount += 1;\n        require(voterCount < 100);\n        voters[msg.sender] = Voter(_firstName, _lastName, voterCount, false);\n    }\n\n    function addCandidates(string memory _firstName, string memory _lastName) public isOwner isParticipantsAllowed { // because contract owner is the one who will give permission for candidates entry\n        checkForEmpty(_firstName);\n        checkForEmpty(_lastName);\n        require(candidateCount < 4); // limiting candidates to 4 as mentioned in assignemnt\n        candidates[candidateCount] = Candidate(_firstName, _lastName, candidateCount, 0);\n        candidateCount += 1;\n    }\n\n    // owner can verify the voters manually\n    function verifyVoter(address voterAddress) public isParticipantsAllowed {\n        voters[voterAddress]._isVerified = true;\n    }\n\n    function vote(uint8 candidateID) public isVotingAllowed {\n        // require(candidateID != 0, \"Candidate ID is must!!\"); // \n        bool isVoterVerified = voters[msg.sender]._isVerified;\n        require(isVoterVerified, \"Voter has already voted or unverified\"); // we can provide more accurate response if needed by adding one more bool in Voter like _hasVoted\n\n        require(candidateID < 4, \"Invalid candidate ID!!\");\n        uint256 votes = candidates[candidateID]._votes;\n        candidates[candidateID]._votes = votes + 1;\n        if (votes > winningVoteCount) {\n            winningVoteCount = votes + 1;\n            winningCandidateID = candidateID;\n        }\n        totalVotes += 1;\n    }\n\n    // (winningCandidateVote x 100) / totalNumberofVotes will give percentage of winning\n    function checkWinner() public view returns (Winner memory) {\n        require(totalVotes > voterCount, \"Kuch to gadbad hai daya!\"); // if we skip this check then we will save around 34000 gas\n        uint256 winningPercentage = (winningVoteCount * 100) / totalVotes;\n        if (winningPercentage > 60) {\n            return Winner(winningCandidateID, winningPercentage, \"WON!!!!\");\n        }\n        return Winner(winningCandidateID, winningPercentage, \"Percentage criteria not met!\");\n    }\n}\n\n// 1466620\n// 1502162\n// 1312812 after removing public from state variiables",
  "sourcePath": "/Users/newput-lt71/Documents/Blockchain/Solidity/voter-contract/contracts/VoterContract.sol",
  "compiler": {
    "name": "solc",
    "version": "0.8.0+commit.c7dfd78e.Emscripten.clang"
  },
  "schemaVersion": "3.4.4",
  "updatedAt": "2022-01-20T07:35:24.279Z",
  "devdoc": {
    "kind": "dev",
    "methods": {},
    "version": 1
  },
  "userdoc": {
    "kind": "user",
    "methods": {},
    "version": 1
  }
}